:100000000C9462000C948A000C948A000C948A0070
:100010000C948A000C948A000C948A000C948A0038
:100020000C948A000C948A000C948A000C948A0028
:100030000C948A000C948A000C948A000C948A0018
:100040000C9409030C948A000C9479030C945303C8
:100050000C948A000C948A000C948A000C948A00F8
:100060000C948A000C948A000000000023002600F3
:10007000290000000000240027002A0000000000E2
:10008000250028002B0004040404040404040202D4
:100090000202020203030303030301020408102007
:1000A0004080010204081020010204081020000012
:1000B0000008000201000003040700000000000027
:1000C00000007C0611241FBECFEFD8E0DEBFCDBFFD
:1000D00011E0A0E0B1E0E6E5F1E102C005900D928B
:1000E000AE31B107D9F721E0AEE1B1E001C01D9218
:1000F000A23DB207E1F710E0C2E6D0E004C02197CC
:10010000FE010E940007C136D107C9F70E94AB0368
:100110000C94A9080C940000833081F028F48130FD
:1001200099F08230A9F008958730A9F08830C9F09D
:100130008430B1F4809180008F7D03C08091800075
:100140008F7780938000089584B58F7784BD08955C
:1001500084B58F7DFBCF8091B0008F778093B00006
:1001600008958091B0008F7DF9CF1F93CF93DF93D7
:10017000282F30E0F901E255FF4F8491F901E6564E
:10018000FF4FD491F901EA57FF4FC491CC23A9F056
:10019000162F81110E948C00EC2FF0E0EE0FFF1F54
:1001A000E458FF4FA591B4918FB7F894EC911111D9
:1001B00008C0D095DE23DC938FBFDF91CF911F91D4
:1001C0000895DE2BF8CFCF93DF9390E0FC01E65645
:1001D000FF4F24918A579F4FFC0184918823C9F0D7
:1001E00090E0880F991FFC01EE58FF4FA591B49144
:1001F000FC01E458FF4FC591D49161110DC09FB728
:10020000F8948C91209582238C93888128232883CD
:100210009FBFDF91CF910895623051F49FB7F8945A
:100220003C91822F809583238C93E8812E2BEFCFF6
:100230008FB7F894EC912E2B2C938FBFEACF1F939E
:10024000CF93DF93182FEB0161E00E94E30020972A
:1002500039F460E0812FDF91CF911F910C94B500AC
:10026000CF3FD10511F461E0F5CFE12FF0E0E25589
:10027000FF4FE491E33031F140F4E130B1F0E2308E
:10028000E1F0C038D1057CF7E4CFE73029F1E83060
:1002900059F1E430B1F78091800080628093800052
:1002A000D0938B00C0938A0004C084B5806884BD5D
:1002B000C7BDDF91CF911F91089584B5806284BD41
:1002C000C8BDF7CF80918000806880938000D09374
:1002D0008900C0938800EDCF8091B0008068809342
:1002E000B000C093B300E5CF8091B00080628093EE
:1002F000B000C093B400DDCF8E50806480937C004A
:1003000080917A00806480937A0080917A0086FDE3
:10031000FCCF80917800909179000895AF92BF92C0
:10032000CF92DF92EF92FF920F931F93CF93DF93C1
:100330006C017B018B01040F151FEB015E01AE18F0
:10034000BF08C017D10759F06991D601ED91FC9112
:100350000190F081E02DC6010995892B79F7C5013F
:10036000DF91CF911F910F91FF90EF90DF90CF9091
:10037000BF90AF900895FC01538D448D252F30E040
:10038000842F90E0821B930B541710F0CF960895A2
:1003900001970895FC01918D828D981761F0A28DCF
:1003A000AE0FBF2FB11D5D968C91928D9F5F9F7395
:1003B000928F90E008958FEF9FEF0895FC01918D4B
:1003C000828D981731F0828DE80FF11D858D90E0B8
:1003D00008958FEF9FEF0895FC01918D228D892F55
:1003E00090E0805C9F4F821B91098F73992708953D
:1003F00085E391E00E94EC0121E0892B09F420E0E3
:10040000822F089580E090E0892B29F00E94F80166
:1004100081110C9400000895FC01A48DA80FB92F40
:10042000B11DA35ABF4F2C91848D90E001968F731C
:100430009927848FA689B7892C93A089B1898C913B
:10044000837080648C93938D848D981306C002888A
:10045000F389E02D80818F7D80830895EF92FF9254
:100460000F931F93CF93DF93EC0181E0888F9B8DD7
:100470008C8D98131AC0E889F989808185FF15C091
:100480009FB7F894EE89FF896083E889F9898081B4
:100490008370806480839FBF81E090E0DF91CF9183
:1004A0001F910F91FF90EF900895F62E0B8D10E0A5
:1004B0000F5F1F4F0F731127E02E8C8D8E110CC014
:1004C0000FB607FCFACFE889F989808185FFF5CF5F
:1004D000CE010E940C02F1CFEB8DEC0FFD2FF11D30
:1004E000E35AFF4FF0829FB7F8940B8FEA89FB899C
:1004F00080818062CFCFCF93DF93EC01888D8823FA
:10050000B9F0AA89BB89E889F9898C9185FD03C076
:10051000808186FD0DC00FB607FCF7CF8C9185FF5B
:10052000F2CF808185FFEDCFCE010E940C02E9CF92
:10053000DF91CF9108954F925F926F927F92AF9229
:10054000BF92CF92DF92EF92FF920F931F93CF93C0
:10055000DF93CDB7DEB728970FB6F894DEBF0FBE96
:10056000CDBF69837A838B839C8329013A01ED8215
:10057000FE820F831887C601B50120E030E048EC09
:1005800052E40E9406076B017C0129813A814B816C
:100590005C810E943C080E94780785E00E941F0150
:1005A000A3019201C701B6010E943C080E9478078E
:1005B00086E00E941F012D813E814F815885C70131
:1005C000B6010E943C080E94780783E028960FB687
:1005D000F894DEBF0FBECDBFDF91CF911F910F9179
:1005E000FF90EF90DF90CF90BF90AF907F906F9093
:1005F0005F904F900C941F01FC0101900020E9F7DF
:100600003197AF01481B590BBC0185E391E00C9475
:100610008E011F920F920FB60F9211242F933F93CA
:100620008F939F93AF93BF9380913101909132014B
:10063000A0913301B09134013091300123E0230FB8
:100640002D3758F50196A11DB11D209330018093DF
:10065000310190933201A0933301B0933401809122
:100660002C0190912D01A0912E01B0912F010196A6
:10067000A11DB11D80932C0190932D01A0932E01FB
:10068000B0932F01BF91AF919F918F913F912F9187
:100690000F900FBE0F901F90189526E8230F02961B
:1006A000A11DB11DD2CF1F920F920FB60F92112430
:1006B0002F933F934F935F936F937F938F939F936A
:1006C000AF93BF93EF93FF9385E391E00E940C02F9
:1006D000FF91EF91BF91AF919F918F917F916F911A
:1006E0005F914F913F912F910F900FBE0F901F90F0
:1006F00018951F920F920FB60F9211242F938F937C
:100700009F93EF93FF93E0914501F0914601808123
:10071000E0914B01F0914C0182FD1BC090818091D2
:100720004E018F5F8F7320914F01821741F0E0914E
:100730004E01F0E0EB5CFE4F958F80934E01FF91F0
:10074000EF919F918F912F910F900FBE0F901F905F
:1007500018958081F4CFCF93DF93CDB7DEB7A797FD
:100760000FB6F894DEBF0FBECDBF789484B582601B
:1007700084BD84B5816084BD85B5826085BD85B545
:10078000816085BD80916E00816080936E001092C3
:10079000810080918100826080938100809181003E
:1007A00081608093810080918000816080938000CF
:1007B0008091B10084608093B1008091B00081602D
:1007C0008093B00080917A00846080937A00809159
:1007D0007A00826080937A0080917A0081608093B1
:1007E0007A0080917A00806880937A001092C1002C
:1007F000E0914501F091460182E08083E091410162
:10080000F09142011082E0914301F09144018FEC9C
:10081000808310924D01E0914901F0914A0186E0F8
:100820008083E0914701F09148018081806180835D
:10083000E0914701F0914801808188608083E091D8
:100840004701F0914801808180688083E0914701F1
:10085000F091480180818F7D808361E085E00E9476
:10086000E30061E086E00E94E30061E083E00E9433
:10087000E30060E08EE00E94E30060E080E10E941F
:10088000E30060E08FE00E94E30060E081E10E940D
:10089000E30062E082E00E94E30088248394912CCC
:1008A0008EE00E947C019BA38AA380E10E947C01D0
:1008B0007C018FE00E947C011C0181E10E947C018F
:1008C00024E630E0DC010E94F9062FEF33E040E03F
:1008D00050E00E94A906CA01B9010E94B0075B015D
:1008E0006C01E0EBF0E08491ECE9F0E00491E8E8E1
:1008F000F0E0149111113AC010922B0110922A01CC
:100900008091260190912701A0912801B0912901A1
:10091000892B8A2B8B2B09F445C02FB7F894809133
:10092000310190913201A0913301B09134012FBF78
:100930004091260150912701609128017091290171
:10094000841B950BA60BB70B803D9740A105B10505
:1009500008F45AC08091240190912501892B09F057
:10096000B3C0909225018092240113C081110E948E
:100970008C00E12FF0E0EE0FFF1FE859FF4FA5912B
:10098000B4918C91082309F4B7CF90922B018092F7
:100990002A0110922601109227011092280110922C
:1009A000290132C08091000190910101019709F065
:1009B000B4CF8091240190912501892B09F4ADCF0A
:1009C0002FB7F8948091310190913201A0913301B9
:1009D000B09134012FBF8093260190932701A093FB
:1009E0002801B0932901809124019091250101965D
:1009F000909325018093240184E191E00E94FC0200
:100A00008BE191E00E94FC028091240190912501EC
:100A1000059724F0909225018092240180912A016B
:100A200090912B019093010180930001409024014B
:100A300050902501052C000C6608770877FE49C008
:100A40006DE285E391E00E942E0222273327A9015F
:100A5000241935094609570919A28E010F5D1F4F48
:100A6000CA01B9012AE030E040E050E00E94C80627
:100A7000605DF80162938F01211531054105510533
:100A800079F70115110519F0C8010E94FC028BE1EC
:100A900091E00E94FC028091240190912501813017
:100AA000910509F4A7C06CF5892B09F493C0E0E027
:100AB000F0E0EF2B09F4F4CE0E94F801882309F44A
:100AC000EFCE0E940000ECCE10922501109224017E
:100AD00060CFA301920119A28E010F5D1F4FCA01C1
:100AE000B9012AE030E040E050E00E94C806605DB5
:100AF000F80162938F01211531054105510579F700
:100B0000C0CF8230910509F483C0039781F6C601F6
:100B1000B5010E9478074FB7F89400913101109108
:100B2000320120913301309134014FBFC090200138
:100B3000D0902101E0902201F09023012801390199
:100B40004C185D086E087F087301620148EEC416F8
:100B500043E0D406E104F104B0F0009320011093C7
:100B60002101209322013093230120911E01309115
:100B70001F012F5F3F4F223031050CF086C03093AC
:100B80001F0120931E0120911E0130911F01213071
:100B9000310509F47FC02230310509F495C0232BBB
:100BA00009F085CF072E000C880B990B0E94B00727
:100BB0005B016C01E12CF12C8701A801970160E039
:100BC00070E08FE793E40E949B029092250180924F
:100BD00024016DCF70E060E085E00E941F0170E0AD
:100BE00060E086E00E941F0170E060E083E00E9408
:100BF0001F015DCFC601B5010E9478076B0185E03A
:100C00000E941F01B60186E00E941F01B601EECFCF
:100C10002FEF30E0D7010E94F9062FEF33E040E0DC
:100C200050E00E94A906CA01B9010E94B0076CA356
:100C30007DA38EA39FA32FEF30E0D1010E94F90680
:100C40002FEF33E040E050E00E94A906CA01B9014D
:100C50000E94B0072B013C012FEF30E0AAA1BBA1FD
:100C60000E94F9062FEF33E040E050E00E94A90611
:100C7000CA01B9010E94B007ECA0FDA00EA11FA1FE
:100C8000A30192010E949B0212CF10921F011092A9
:100C90001E0179CF072E000C880B990B0E94B0071C
:100CA0005B016C01E12CF12C870120E030E04FE783
:100CB00053E4C801B7010E949B0282E090E0909348
:100CC000250180932401F3CE072E000C880B990B8D
:100CD0000E94B0075B016C01E12CF12C0FE713E4DB
:100CE00020E030E0A901CA01B9010E949B021092E4
:100CF000250110922401DBCEE5E3F1E0138212829C
:100D000088EE93E0A0E0B0E084839583A683B78368
:100D100086E091E09183808385EC90E095878487DD
:100D200084EC90E09787868780EC90E0918B808BB5
:100D300081EC90E0938B828B82EC90E0958B848B9E
:100D400086EC90E0978B868B118E128E138E148E0C
:100D50000895052E97FB1EF400940E94C00657FDCF
:100D600007D00E94C80607FC03D04EF40C94C006BE
:100D700050954095309521953F4F4F4F5F4F0895C7
:100D800090958095709561957F4F8F4F9F4F0895F7
:100D9000A1E21A2EAA1BBB1BFD010DC0AA1FBB1F7F
:100DA000EE1FFF1FA217B307E407F50720F0A21BF1
:100DB000B30BE40BF50B661F771F881F991F1A945E
:100DC00069F760957095809590959B01AC01BD0188
:100DD000CF010895A29FB001B39FC001A39F700DE2
:100DE000811D1124911DB29F700D811D1124911D33
:100DF00008950E94EA06B7FF0895821B930B089599
:100E0000EE0FFF1F0590F491E02D09940E941A0740
:100E10000C9402080E94FB0758F00E94F40740F06F
:100E200029F45F3F29F00C94EB0751110C9436081C
:100E30000C94F1070E94130868F39923B1F355232A
:100E400091F3951B550BBB27AA27621773078407DD
:100E500038F09F5F5F4F220F331F441FAA1FA9F373
:100E600035D00E2E3AF0E0E832D091505040E69561
:100E7000001CCAF72BD0FE2F29D0660F771F881FC2
:100E8000BB1F261737074807AB07B0E809F0BB0BB5
:100E9000802DBF01FF2793585F4F3AF09E3F5105C9
:100EA00078F00C94EB070C9436085F3FE4F3983E1F
:100EB000D4F3869577956795B795F7959F5FC9F7B2
:100EC000880F911D9695879597F90895E1E0660F33
:100ED000771F881FBB1F621773078407BA0720F0AC
:100EE000621B730B840BBA0BEE1F88F7E095089515
:100EF0000E947F076894B1110C94360808950E94EF
:100F00001B0888F09F5798F0B92F9927B751B0F078
:100F1000E1F0660F771F881F991F1AF0BA95C9F77D
:100F200014C0B13091F00E943508B1E008950C94DE
:100F30003508672F782F8827B85F39F0B93FCCF391
:100F4000869577956795B395D9F73EF490958095FA
:100F5000709561957F4F8F4F9F4F0895E89409C01A
:100F600097FB3EF490958095709561957F4F8F4FDC
:100F70009F4F9923A9F0F92F96E9BB279395F695F2
:100F8000879577956795B795F111F8CFFAF4BB0F70
:100F900011F460FF1BC06F5F7F4F8F4F9F4F16C0D4
:100FA000882311F096E911C0772321F09EE8872F5E
:100FB000762F05C0662371F096E8862F70E060E01A
:100FC0002AF09A95660F771F881FDAF7880F969593
:100FD000879597F9089597F99F6780E870E060E03A
:100FE00008959FEF80EC089500240A9416161706C2
:100FF00018060906089500240A941216130614060A
:1010000005060895092E0394000C11F4882352F06C
:10101000BB0F40F4BF2B11F460FF04C06F5F7F4F24
:101020008F4F9F4F089557FD9058440F551F59F00B
:101030005F3F71F04795880F97FB991F61F09F3FC5
:1010400079F087950895121613061406551FF2CFEE
:101050004695F1DF08C0161617061806991FF1CF3E
:1010600086957105610508940895E894BB27662765
:101070007727CB0197F908950E944F080C94020836
:101080000E94F40738F00E94FB0720F0952311F02E
:101090000C94EB070C94F10711240C9436080E9471
:1010A000130870F3959FC1F3950F50E0551F629F91
:1010B000F001729FBB27F00DB11D639FAA27F00DB1
:1010C000B11DAA1F649F6627B00DA11D661F829FD8
:1010D0002227B00DA11D621F739FB00DA11D621FBD
:1010E000839FA00D611D221F749F3327A00D611DDA
:1010F000231F849F600D211D822F762F6A2F1124BC
:101100009F5750409AF0F1F088234AF0EE0FFF1FEE
:10111000BB1F661F771F881F91505040A9F79E3F45
:10112000510580F00C94EB070C9436085F3FE4F314
:10113000983ED4F3869577956795B795F795E7959B
:101140009F5FC1F7FE2B880F911D9695879597F9A4
:061150000895F894FFCFA2
:101156000100000000002E028E01BB017B02EC01A3
:0E116600CA01DE0161706572746F000D0A002F
:00000001FF
