:100000000C9462000C948A000C948A000C948A0070
:100010000C948A000C948A000C948A000C948A0038
:100020000C948A000C948A000C948A000C948A0028
:100030000C948A000C948A000C948A000C948A0018
:100040000C942A030C948A000C949A030C94740365
:100050000C948A000C948A000C948A000C948A00F8
:100060000C948A000C948A000000000023002600F3
:10007000290000000000240027002A0000000000E2
:10008000250028002B0004040404040404040202D4
:100090000202020203030303030301020408102007
:1000A0004080010204081020010204081020000012
:1000B0000008000201000003040700000000000027
:1000C0000000EF0711241FBECFEFD8E0DEBFCDBF89
:1000D00011E0A0E0B1E0E0EAF7E102C005900D9286
:1000E000A632B107D9F721E0A6E2B1E001C01D9226
:1000F000A73EB207E1F710E0C2E6D0E004C02197C6
:10010000FE010E942309C136D107C9F70E94CC0322
:100110000C94CE0B0C940000833081F028F48130D5
:1001200099F08230A9F008958730A9F08830C9F09D
:100130008430B1F4809180008F7D03C08091800075
:100140008F7780938000089584B58F7784BD08955C
:1001500084B58F7DFBCF8091B0008F778093B00006
:1001600008958091B0008F7DF9CF1F93CF93DF93D7
:10017000282F30E0F901E255FF4F8491F901E6564E
:10018000FF4FD491F901EA57FF4FC491CC23A9F056
:10019000162F81110E948C00EC2FF0E0EE0FFF1F54
:1001A000E458FF4FA591B4918FB7F894EC911111D9
:1001B00008C0D095DE23DC938FBFDF91CF911F91D4
:1001C0000895DE2BF8CFCF93DF9390E0FC01E65645
:1001D000FF4F24918A579F4FFC0184918823C9F0D7
:1001E00090E0880F991FFC01EE58FF4FA591B49144
:1001F000FC01E458FF4FC591D49161110DC09FB728
:10020000F8948C91209582238C93888128232883CD
:100210009FBFDF91CF910895623051F49FB7F8945A
:100220003C91822F809583238C93E8812E2BEFCFF6
:100230008FB7F894EC912E2B2C938FBFEACF1F939E
:10024000CF93DF93182FEB0161E00E94E30020972A
:1002500039F460E0812FDF91CF911F910C94B500AC
:10026000CF3FD10511F461E0F5CFE12FF0E0E25589
:10027000FF4FE491E33031F140F4E130B1F0E2308E
:10028000E1F0C038D1057CF7E4CFE73029F1E83060
:1002900059F1E430B1F78091800080628093800052
:1002A000D0938B00C0938A0004C084B5806884BD5D
:1002B000C7BDDF91CF911F91089584B5806284BD41
:1002C000C8BDF7CF80918000806880938000D09374
:1002D0008900C0938800EDCF8091B0008068809342
:1002E000B000C093B300E5CF8091B00080628093EE
:1002F000B000C093B400DDCF2FB7F89460914601F1
:100300007091470180914801909149012FBF089554
:10031000AF92BF92CF92DF92EF92FF920F931F9313
:10032000CF93DF936C017B018B01040F151FEB0151
:100330005E01AE18BF08C017D10759F06991D60108
:10034000ED91FC910190F081E02DC6010995892B7A
:1003500079F7C501DF91CF911F910F91FF90EF9039
:10036000DF90CF90BF90AF900895FC01538D448DE6
:10037000252F30E0842F90E0821B930B541710F050
:10038000CF96089501970895FC01918D828D98175D
:1003900061F0A28DAE0FBF2FB11D5D968C91928D35
:1003A0009F5F9F73928F90E008958FEF9FEF089566
:1003B000FC01918D828D981731F0828DE80FF11D2F
:1003C000858D90E008958FEF9FEF0895FC01918D4A
:1003D000228D892F90E0805C9F4F821B91098F7343
:1003E000992708958AE491E00E94E60121E0892B93
:1003F00009F420E0822F089580E090E0892B29F015
:100400000E94F20181110C9400000895FC01A48D5A
:10041000A80FB92FB11DA35ABF4F2C91848D90E026
:1004200001968F739927848FA689B7892C93A08909
:10043000B1898C91837080648C93938D848D981393
:1004400006C00288F389E02D80818F7D8083089526
:10045000EF92FF920F931F93CF93DF93EC0181E014
:10046000888F9B8D8C8D98131AC0E889F9898081BB
:1004700085FF15C09FB7F894EE89FF896083E889EE
:10048000F98980818370806480839FBF81E090E0E0
:10049000DF91CF911F910F91FF90EF900895F62E6D
:1004A0000B8D10E00F5F1F4F0F731127E02E8C8D07
:1004B0008E110CC00FB607FCFACFE889F98980814C
:1004C00085FFF5CFCE010E940602F1CFEB8DEC0F38
:1004D000FD2FF11DE35AFF4FF0829FB7F8940B8F69
:1004E000EA89FB8980818062CFCFCF93DF93EC01D3
:1004F000888D8823B9F0AA89BB89E889F9898C910C
:1005000085FD03C0808186FD0DC00FB607FCF7CFC7
:100510008C9185FFF2CF808185FFEDCFCE010E94C7
:100520000602E9CFDF91CF910895AF92BF92CF92AB
:10053000DF92EF92FF920F931F93CF93DF935B01B4
:10054000EA017901BC01990F880B990B0E94450AB9
:10055000A70198010E945C0B0E940D0A85E00E9491
:100560001F01B501BB0C880B990B0E94450AA7011E
:1005700098010E945C0B0E940D0A86E00E941F01F8
:10058000BE01DD0F880B990B0E94450AA701980157
:100590000E945C0B0E940D0A83E0DF91CF911F91B6
:1005A0000F91FF90EF90DF90CF90BF90AF900C94A1
:1005B0001F01FC0101900020E9F73197AF01481BB2
:1005C000590BBC018AE491E00C9488018F929F92B0
:1005D000AF92BF920F931F93CF93DF93CDB7DEB748
:1005E000A1970FB6F894DEBF0FBECDBF19A242305F
:1005F00008F44AE08E010F5D1F4F842E912CB12C20
:10060000A12CA50194010E94F208E62FB901CA01AC
:10061000EA30F4F4E05DD801EE938D01232B242B16
:10062000252B79F790E080E0109719F0CD010E941A
:10063000D902A1960FB6F894DEBF0FBECDBFDF91F1
:10064000CF911F910F91BF90AF909F908F90089581
:10065000E95CE1CF1F920F920FB60F9211242F93F6
:100660003F938F939F93AF93BF9380914601909157
:100670004701A0914801B09149013091450123E023
:10068000230F2D3758F50196A11DB11D209345016B
:100690008093460190934701A0934801B09349018C
:1006A0008091410190914201A0914301B091440198
:1006B0000196A11DB11D8093410190934201A09329
:1006C0004301B0934401BF91AF919F918F913F91AE
:1006D0002F910F900FBE0F901F90189526E8230FB3
:1006E0000296A11DB11DD2CF1F920F920FB60F928D
:1006F00011242F933F934F935F936F937F938F9327
:100700009F93AF93BF93EF93FF938AE491E00E948E
:100710000602FF91EF91BF91AF919F918F917F91D1
:100720006F915F914F913F912F910F900FBE0F905E
:100730001F9018951F920F920FB60F9211242F93AE
:100740008F939F93EF93FF93E0915A01F0915B0198
:100750008081E0916001F091610182FD1BC0908178
:10076000809163018F5F8F7320916401821741F044
:10077000E0916301F0E0E65BFE4F958F80936301AB
:10078000FF91EF919F918F912F910F900FBE0F903E
:100790001F9018958081F4CF789484B5826084BDD1
:1007A00084B5816084BD85B5826085BD85B5816075
:1007B00085BD80916E00816080936E0010928100F3
:1007C00080918100826080938100809181008160AE
:1007D000809381008091800081608093800080916F
:1007E000B10084608093B1008091B00081608093FB
:1007F000B00080917A00846080937A0080917A00C2
:10080000826080937A0080917A00816080937A0080
:1008100080917A00806880937A001092C100E09104
:100820005A01F0915B0182E08083E0915601F091E2
:1008300057011082E0915801F09159018FEC8083AB
:1008400010926201E0915E01F0915F0186E0808389
:10085000E0915C01F0915D01808180618083E09195
:100860005C01F0915D01808188608083E0915C0192
:10087000F0915D01808180688083E0915C01F0915E
:100880005D0180818F7D808361E085E00E94E300CF
:1008900061E086E00E94E30061E083E00E94E30003
:1008A00060E083E10E94E30060E08FE00E94E300EB
:1008B00060E080E10E94E30060E08EE00E94E300DF
:1008C00062E082E00E94E3002224239425E4209346
:1008D0007C0080917A00806480937A0080917A0015
:1008E00086FDFCCF80917800909179009093330140
:1008F00080933201E0EBF0E08491ECE9F0E0C49108
:10090000E8E8F0E0D491D11165C010924001109256
:100910003F01C0913D01D0913E01C130D10551F45C
:100920000E947C016093390170933A0180933B01EE
:1009300090933C010E947C01C0903901D0903A0113
:10094000E0903B01F0903C016C197D098E099F09F4
:10095000603D77408105910598F0809138018111C3
:100960000FC0209238018091360190913701892B78
:1009700009F0B6C081E090E0909337018093360192
:100980000E947C016C197D098E099F09643F7140AA
:100990008105910560F080913501811108C0209298
:1009A000350180913401F1E08F2780933401C1300B
:1009B000D10589F58091360190913701009759F161
:1009C0000196853091050CF090C09093370180938B
:1009D000360121C081110E948C00ED2FF0E0EE0F56
:1009E000FF1FE859FF4FA591B4918C91C82309F4DA
:1009F0008CCF81E090E09093400180933F01109272
:100A000035011092390110923A0110923B01109277
:100A10003C011092380180913F01909140019093E8
:100A20003E0180933D01C0903201D09033010D2CE6
:100A3000000CEE08FF084AE0C701B601F7FE0DC042
:100A40006DE28AE491E00E94280266277727CB01B5
:100A50006C197D098E099F094AE00E94E60286E131
:100A600091E00E94D9026091320170913301072E0A
:100A7000000C880B990B0E94450A20E030EC4FE7F0
:100A800054E40E949B096B017C01AC019B010E9414
:100A9000C90B882379F189E191E00E94D90286E1AE
:100AA00091E00E94D9028091360190913701823005
:100AB000910509F4F5C10CF0AFC0009709F4DCC151
:100AC000019709F4E4C180E090E0892B09F4FECE9F
:100AD0000E94F201882309F4F9CE0E940000F6CEAC
:100AE00010923701109236014BCFD0933701C0934B
:100AF000360191CF46015701E894B7F82FEF3FEF49
:100B00004FE75FE7C501B4010E94C90B81110DC019
:100B10002FEF3FEF4FE75FE7C501B4010E94960951
:100B200018161CF48DE191E0B8CF2FEF3FEF4FE79F
:100B30005FE4C701B6010E94570B18161CF481E24E
:100B400091E0ABCF2FEF3FEF4FE75FECC701B6016E
:100B50000E94960987FDF3CF20E030E0A901C7018C
:100B6000B6010E94960987FF54C06DE28AE491E0C5
:100B70000E942802C701B60190582AE037ED43EAE7
:100B80005BE30E942A092B013C010E94140A4B01DD
:100B90005C010E94430A9B01AC01C301B2010E94A7
:100BA00029092B013C014AE0C501B4010E94E6027B
:100BB0006EE28AE491E00E94280220E030E040E208
:100BC00051E4C301B2010E945C0B2B013C010E9465
:100BD000140A4B01B12CA12C4AE0C501B4010E94BA
:100BE000E602C501B4010E94430A9B01AC01C301A6
:100BF000B2010E94290920E030E040E251E40E9465
:100C00005C0B0E94140A90E080E04AE00E94E60239
:100C100046CFC701B601B1CF8330910509F447C172
:100C2000049709F050CF0E947C010E94430A209152
:100C30002E0130912F0140913001509131010E94DD
:100C4000290920E030E046E952E40E94570B87FD75
:100C500004C10E947C010E94430A60932E0170939C
:100C60002F0180933001909331010E94680828E69B
:100C700031E040E050E00E94C008072E000C880BD5
:100C8000990B0E94450A4B015C0120E030E040E7EF
:100C900052E40E949B0920E030E040E050E40E94D2
:100CA0008B0A20E030E040E85FE30E9429092B0135
:100CB0003C0120E030E0A9010E94960987FF04C0B2
:100CC00077FA709477F87094A301920160E070E075
:100CD00080E89FE30E9429098B01D82FC92F20E0CB
:100CE00030E0A901C501B4010E94570B87FD0AC07D
:100CF00020E030E040E752E4C501B4010E949609CB
:100D000087FD2CC120E030E040E752E4C501B4018A
:100D10000E94570B87FD0AC020E030E040EF52E40C
:100D2000C501B4010E94960987FD21C120E030E091
:100D300040EF52E4C501B4010E94570B87FD0AC081
:100D400020E030E044E353E4C501B4010E94960979
:100D500087FD18C120E030E044E353E4C501B4014D
:100D60000E94570B87FD0AC020E030E040E753E4C3
:100D7000C501B4010E94960987FD12C120E030E050
:100D800040E753E4C501B4010E94570B87FD0AC038
:100D900020E030E046E953E4C501B4010E94960921
:100DA00087FD09C120E030E046E953E4C501B40104
:100DB0000E94570B87FD0AC120E030E044EB53E46A
:100DC000C501B4010E94960987FF00C14801AD2EFC
:100DD000BC2E312C412C512C612C00E010E0D0E8CD
:100DE000CFE320E030E0A901B8018D2F9C2F0E94B5
:100DF0002A0920E030E04FE753E40E945C0B0E9498
:100E00000D0A70932D0160932C0120E030E0A901C0
:100E1000632D742D852D962D0E942A0920E030E047
:100E20004FE753E40E945C0B0E940D0A70932B0164
:100E300060932A0120E030E0A901B401C5010E94BD
:100E40002A0920E030E04FE753E40E945C0B0E9447
:100E50000D0A709329016093280140912801509157
:100E6000290160912A0170912B01970186018091DF
:100E70002C0190912D0108C09701860150E040E0BF
:100E800070E060E090E080E00E9495021CCE970147
:100E900086014FEF50E06FEF70E08FEF90E0F4CFFE
:100EA0009701860150E040E06BE470E0F6CFC0911E
:100EB0002601D0912701C130D105D9F1C230D10529
:100EC00009F440C0209751F49701860150E040E0BA
:100ED00070E060E08FEF90E00E9495020E947C013C
:100EE0000E94430A20912E0130912F014091300140
:100EF000509131010E94290920E030E046E953E495
:100F00000E94570B87FDDFCD2196C330D1050CF52C
:100F1000D0932701C09326010E947C010E94430ABE
:100F200060932E0170932F018093300190933101D3
:100F3000CACD9701860150E040E06FEF70E090E08D
:100F400080E0CACF970186014FEF50E070E060E08B
:100F5000F6CF1092270110922601DECF302E412EBF
:100F60005D2E6C2E812C912CA12CB12C36CF812C96
:100F7000912CA12CB12C312C412C60E8562E7FE312
:100F8000672E2FCF4801AD2EBC2E312C412C40E8CE
:100F9000542E5FE3652E00E010E0D0E0C0E021CFEA
:100FA000302E412E5D2E6C2E812C912C20E8A22E0D
:100FB0003FE3B32EF0CF812C912C80E8A82E9FE345
:100FC000B92E312C412C512C612C0BCF812C912C22
:100FD000A12CB12C312C412C512C612CDCCFEAE41A
:100FE000F1E01382128288EE93E0A0E0B0E0848307
:100FF0009583A683B78388E091E09183808385EC15
:1010000090E09587848784EC90E09787868780ECD2
:1010100090E0918B808B81EC90E0938B828B82ECC3
:1010200090E0958B848B86EC90E0978B868B118E6D
:10103000128E138E148E08958F929F92AF92BF924C
:10104000CF92DF92EF92FF92CF93DF93EC01688112
:1010500079818A819B81611571058105910521F452
:1010600064E279ED8BE597E02DE133EF41E050E06C
:101070000E94C00849015A019B01AC01A7EAB1E4F2
:101080000E94DF086B017C01ACEEB4EFA501940176
:101090000E94ED08C60ED71EE81EF91EF7FE06C018
:1010A00081E0C81AD108E10880E8F80AC882D9822C
:1010B000EA82FB82C701B6019F77DF91CF91FF9053
:1010C000EF90DF90CF90BF90AF909F908F9008955A
:1010D0008F929F92AF92BF92CF92DF92EF92FF9248
:1010E00060910001709101018091020190910301D2
:1010F000611571058105910521F464E279ED8BE5B7
:1011000097E02DE133EF41E050E00E94C008490133
:101110005A019B01AC01A7EAB1E40E94DF086B0110
:101120007C01ACEEB4EFA50194010E94ED08C60E5F
:10113000D71EE81EF91EF7FE06C081E0C81AD108C6
:10114000E10880E8F80AC0920001D0920101E09223
:101150000201F0920301C701B6019F77FF90EF9063
:10116000DF90CF90BF90AF909F908F900895609345
:10117000000170930101809302019093030108958F
:10118000052E97FB1EF400940E94D70857FD07D048
:101190000E94F20807FC03D04EF40C94D708509537
:1011A0004095309521953F4F4F4F5F4F0895909553
:1011B0008095709561957F4F8F4F9F4F08950E9446
:1011C0001409A59F900DB49F900DA49F800D911DB3
:1011D00011240895B7FF0C94DF080E94DF08821BDA
:1011E000930B0895A1E21A2EAA1BBB1BFD010DC093
:1011F000AA1FBB1FEE1FFF1FA217B307E407F507C7
:1012000020F0A21BB30BE40BF50B661F771F881FA2
:10121000991F1A9469F760957095809590959B0138
:10122000AC01BD01CF010895A29FB001B39FC001E1
:10123000A39F700D811D1124911DB29F700D811D02
:101240001124911D0895EE0FFF1F0590F491E02DDC
:1012500009945058BB27AA270E9441090C941D0BE2
:101260000E940F0B38F00E94160B20F039F49F3FBC
:1012700019F426F40C940C0B0EF4E095E7FB0C9497
:10128000F80AE92F0E942E0B58F3BA17620773076A
:101290008407950720F079F4A6F50C94500B0EF412
:1012A000E0950B2EBA2FA02D0B01B90190010C0176
:1012B000CA01A0011124FF27591B99F0593F50F48E
:1012C000503E68F11A16F040A22F232F342F4427E6
:1012D000585FF3CF469537952795A795F0405395DE
:1012E000C9F77EF41F16BA0B620B730B840BBAF0AE
:1012F0009150A1F0FF0FBB1F661F771F881FC2F719
:101300000EC0BA0F621F731F841F48F4879577952C
:101310006795B795F7959E3F08F0B0CF9395880FE6
:1013200008F09927EE0F9795879508950E94D40AA3
:1013300008F481E008950E94AF090C941D0B0E94EF
:10134000160B58F00E940F0B40F029F45F3F29F074
:101350000C94F80A51110C94510B0C940C0B0E9434
:101360002E0B68F39923B1F3552391F3951B550B7D
:10137000BB27AA2762177307840738F09F5F5F4F68
:10138000220F331F441FAA1FA9F335D00E2E3AF0A7
:10139000E0E832D091505040E695001CCAF72BD0BF
:1013A000FE2F29D0660F771F881FBB1F2617370710
:1013B0004807AB07B0E809F0BB0B802DBF01FF2742
:1013C00093585F4F3AF09E3F510578F00C94F80A1D
:1013D0000C94510B5F3FE4F3983ED4F386957795D8
:1013E0006795B795F7959F5FC9F7880F911D9695FB
:1013F000879597F90895E1E0660F771F881FBB1F57
:10140000621773078407BA0720F0621B730B840B03
:10141000BA0BEE1F88F7E09508950E94140A6894AD
:10142000B1110C94510B08950E94360B88F09F5710
:1014300098F0B92F9927B751B0F0E1F0660F771FF8
:10144000881F991F1AF0BA95C9F714C0B13091F0EE
:101450000E94500BB1E008950C94500B672F782F29
:101460008827B85F39F0B93FCCF3869577956795B3
:10147000B395D9F73EF490958095709561957F4F1F
:101480008F4F9F4F0895E89409C097FB3EF49095C5
:101490008095709561957F4F8F4F9F4F9923A9F04D
:1014A000F92F96E9BB279395F695879577956795DC
:1014B000B795F111F8CFFAF4BB0F11F460FF1BC020
:1014C0006F5F7F4F8F4F9F4F16C0882311F096E9B3
:1014D00011C0772321F09EE8872F762F05C0662361
:1014E00071F096E8862F70E060E02AF09A95660F1A
:1014F000771F881FDAF7880F9695879597F90895D3
:101500000E940F0B20F019F00E94160B50F40C945F
:101510000C0B0C94510BE92F0E942E0B88F35523D2
:10152000B1F3E7FB6217730784079507A8F189F306
:10153000E92FFF2788232AF03197660F771F881F2E
:10154000DAF7952F5527442332F091505040220F5F
:10155000331F441FD2F7BB27E91BF50B621B730B2C
:10156000840BB109B1F222F4620F731F841FB11D05
:1015700031972AF0660F771F881FBB1FEFCF91505E
:10158000504062F041F0882332F0660F771F881FC9
:1015900091505040C1F793950C94FE0A869577952B
:1015A00067959F5FD9F7F7CF990F0008550FAA0BE2
:1015B000E0E8FEEF16161706E807F907C0F0121666
:1015C0001306E407F50798F0621B730B840B950B69
:1015D00039F40A2661F0232B242B252B21F40895BE
:1015E0000A2609F4A140A6958FEF811D811D08955B
:1015F00097F99F6780E870E060E008959F3F31F0C1
:10160000915020F4879577956795B795880F911D30
:101610009695879597F908959FEF80EC089500249B
:101620000A941616170618060906089500240A9447
:1016300012161306140605060895092E0394000CCD
:1016400011F4882352F0BB0F40F4BF2B11F460FF5C
:1016500004C06F5F7F4F8F4F9F4F089557FD905885
:10166000440F551F59F05F3F71F04795880F97FB66
:10167000991F61F09F3F79F0879508951216130620
:101680001406551FF2CF4695F1DF08C0161617064F
:101690001806991FF1CF8695710561050894089584
:1016A000E894BB2766277727CB0197F908950E9416
:1016B000D40A08F48FEF08950E946F0B0C941D0B51
:1016C0000E940F0B38F00E94160B20F0952311F0AA
:1016D0000C94F80A0C940C0B11240C94510B0E94DE
:1016E0002E0B70F3959FC1F3950F50E0551F629F2D
:1016F000F001729FBB27F00DB11D639FAA27F00D6B
:10170000B11DAA1F649F6627B00DA11D661F829F91
:101710002227B00DA11D621F739FB00DA11D621F76
:10172000839FA00D611D221F749F3327A00D611D93
:10173000231F849F600D211D822F762F6A2F112475
:101740009F5750409AF0F1F088234AF0EE0FFF1FA8
:10175000BB1F661F771F881F91505040A9F79E3FFF
:10176000510580F00C94F80A0C94510B5F3FE4F3A0
:10177000983ED4F3869577956795B795F795E79555
:101780009F5FC1F7FE2B880F911D9695879597F95E
:1017900008950E94D40A880B990B0895F894FFCFFE
:1017A000010000000000000028028801B501750258
:1017B000E601C401D8010D0A006E616E00696E6613
:0617C000006F76660000D8
:00000001FF
