:100000000C945D000C9485000C9485000C94850084
:100010000C9485000C9485000C9485000C9485004C
:100020000C9485000C9485000C9485000C9485003C
:100030000C9485000C9485000C9485000C9485002C
:100040000C949B030C9485000C940B040C94E50316
:100050000C9485000C9485000C9485000C9485000C
:100060000C9485000C9485000000000024002700FB
:100070002A0000000000250028002B0004040404CE
:100080000404040402020202020203030303030342
:10009000010204081020408001020408102001021F
:1000A00004081020000000080002010000030407FB
:1000B00000000000000000007D0511241FBECFEFEE
:1000C000D8E0DEBFCDBF11E0A0E0B1E0E8E9F0E1AB
:1000D00002C005900D92A232B107D9F721E0A2E249
:1000E000B1E001C01D92A83CB207E1F710E0CDE5F8
:1000F000D0E004C02197FE010E940106CC35D10753
:10010000C9F70E943D040C944A080C94000090E04A
:10011000FC01EC55FF4F2491FC01E057FF4F349157
:10012000FC01E458FF4FE491EE23C9F0222339F09B
:10013000233001F1A8F4213019F1223029F1F0E047
:10014000EE0FFF1FEE58FF4FA591B4918FB7F894B3
:10015000EC91611126C030953E233C938FBF0895EA
:100160002730A9F02830C9F0243049F78091800069
:100170008F7D03C0809180008F7780938000DFCFD8
:1001800084B58F7784BDDBCF84B58F7DFBCF809125
:10019000B0008F778093B000D2CF8091B0008F7D78
:1001A000F9CF3E2BDACFCF93DF9390E0FC01E057FD
:1001B000FF4F249184589F4FFC0184918823D1F0F4
:1001C00090E0880F991FFC01E859FF4FA591B49169
:1001D000FC01EE58FF4FC591D49161110EC09FB73D
:1001E000F8948C91E22FE0958E238C932881E22362
:1001F000E8839FBFDF91CF9108958FB7F894EC917A
:10020000E22BEC938FBFF6CF1F93CF93DF93182F82
:10021000EB0161E00E94D300209739F460E0812F68
:10022000DF91CF911F910C948700CF3FD10511F43E
:1002300061E0F5CFE12FF0E0EC55FF4FE491E330C2
:1002400031F140F4E130B1F0E230E1F0C038D105F5
:100250007CF7E4CFE73029F1E83059F1E430B1F729
:1002600080918000806280938000D0938B00C09347
:100270008A0004C084B5806884BDC7BDDF91CF917A
:100280001F91089584B5806284BDC8BDF7CF809169
:100290008000806880938000D0938900C09388009C
:1002A000EDCF8091B00080688093B000C093B30020
:1002B000E5CF8091B00080628093B000C093B4001D
:1002C000DDCF8E50806480937C0080917A008064C2
:1002D00080937A0080917A0086FDFCCF809178002F
:1002E000909179000895AF92BF92CF92DF92EF92F2
:1002F000FF920F931F93CF93DF936C017B018B01D0
:10030000040F151FEB015E01AE18BF08C017D1071F
:1003100059F06991D601ED91FC910190F081E02DA9
:10032000C6010995892B79F7C501DF91CF911F91FE
:100330000F91FF90EF90DF90CF90BF90AF90089516
:10034000FC01538D448D252F30E0842F90E0821BDB
:10035000930B541710F0CF96089501970895FC0160
:10036000918D828D981761F0A28DAE0FBF2FB11DB8
:100370005D968C91928D9F5F9F73928F90E0089510
:100380008FEF9FEF0895FC01918D828D981731F0CA
:10039000828DE80FF11D858D90E008958FEF9FEF1E
:1003A0000895FC01918D228D892F90E0805C9F4FF4
:1003B000821B91098F73992708958BE291E00E9427
:1003C000D10121E0892B09F420E0822F089580E0FB
:1003D00090E0892B29F00E94DD0181110C9400002E
:1003E0000895FC01A48DA80FB92FB11DA35ABF4FCA
:1003F0002C91848D90E001968F739927848FA68924
:10040000B7892C93A089B1898C91837080648C9377
:10041000938D848D981306C00288F389E02D808126
:100420008F7D80830895EF92FF920F931F93CF9358
:10043000DF93EC0181E0888F9B8D8C8D98131AC01F
:10044000E889F989808185FF15C09FB7F894EE8906
:10045000FF896083E889F989808183708064808363
:100460009FBF81E090E0DF91CF911F910F91FF90AE
:10047000EF900895F62E0B8D10E00F5F1F4F0F7356
:100480001127E02E8C8D8E110CC00FB607FCFACF11
:10049000E889F989808185FFF5CFCE010E94F101BD
:1004A000F1CFEB8DEC0FFD2FF11DE35AFF4FF082E2
:1004B0009FB7F8940B8FEA89FB8980818062CFCF48
:1004C000CF93DF93EC01888D8823B9F0AA89BB898B
:1004D000E889F9898C9185FD03C0808186FD0DC076
:1004E0000FB607FCF7CF8C9185FFF2CF808185FF97
:1004F000EDCFCE010E94F101E9CFDF91CF910895B8
:10050000FC0101900020E9F73197AF01481B590B1E
:10051000BC018BE291E00C9473018F929F92AF9299
:10052000BF920F931F93CF93DF93CDB7DEB7A19701
:100530000FB6F894DEBF0FBECDBF19A2423008F44B
:100540004AE08E010F5D1F4F842E912CB12CA12CFF
:10055000A50194010E94C905E62FB901CA01EA303C
:10056000F4F4E05DD801EE938D01232B242B252B91
:1005700079F790E080E0109719F0CD010E94800299
:10058000A1960FB6F894DEBF0FBECDBFDF91CF911D
:100590001F910F91BF90AF909F908F900895E95C4D
:1005A000E1CF4F925F926F927F928F929F92AF9224
:1005B000BF92CF92DF92EF92FF926B017C01AC0170
:1005C0009B010E9445088823C1F082E191E00E94CE
:1005D00080027C018EE191E00E9480028E0D9F1DC1
:1005E000FF90EF90DF90CF90BF90AF909F908F9053
:1005F0007F906F905F904F90089546015701E89467
:10060000B7F82FEF3FEF4FE75FE7C501B4010E9456
:10061000450881110DC02FEF3FEF4FE75FE7C501A0
:10062000B4010E94740618161CF486E191E0CFCF45
:100630002FEF3FEF4FE75FE4C701B6010E94D307FA
:1006400018161CF48AE191E0C2CF2FEF3FEF4FE77D
:100650005FECC701B6010E94740687FDF3CF20E06E
:1006600030E0A901C701B6010E947406B12CA12C8B
:1006700087FF0AC06DE28BE291E00E9413025C01E9
:10068000F7FAF094F7F8F0942AE037ED43EA5BE3E9
:10069000C701B6010E9408062B013C010E94F20628
:1006A0006B017C010E9421079B01AC01C301B201D7
:1006B0000E9407062B013C014AE0C701B6010E94D7
:1006C0008D027C01EA0CFB1C6EE28BE291E00E9441
:1006D0001302E80EF91E20E030E040E251E4C301CD
:1006E000B2010E94D8072B013C010E94F2064B0187
:1006F000B12CA12C4AE0C501B4010E948D02E80E84
:10070000F91EC501B4010E9421079B01AC01C30180
:10071000B2010E94070620E030E040E251E40E946E
:10072000D8070E94F20690E080E04AE00E948D0225
:10073000E80EF91E4FCF1F920F920FB60F921124A1
:100740002F933F938F939F93AF93BF9380912701F4
:1007500090912801A0912901B0912A0130912601A0
:1007600023E0230F2D3758F50196A11DB11D2093CD
:1007700026018093270190932801A0932901B0932B
:100780002A018091220190912301A0912401B0912E
:1007900025010196A11DB11D809322019093230193
:1007A000A0932401B0932501BF91AF919F918F91A8
:1007B0003F912F910F900FBE0F901F90189526E834
:1007C000230F0296A11DB11DD2CF1F920F920FB61B
:1007D0000F9211242F933F934F935F936F937F93C7
:1007E0008F939F93AF93BF93EF93FF938BE291E02F
:1007F0000E94F101FF91EF91BF91AF919F918F9175
:100800007F916F915F914F913F912F910F900FBE0C
:100810000F901F9018951F920F920FB60F921124F0
:100820002F938F939F93EF93FF93E0913B01F09170
:100830003C018081E0914101F091420182FD1BC0A9
:100840009081809144018F5F8F73209145018217C1
:1008500041F0E0914401F0E0E55DFE4F958F80931B
:100860004401FF91EF919F918F912F910F900FBEB7
:100870000F901F9018958081F4CFCF93DF93CDB761
:10088000DEB728970FB6F894DEBF0FBECDBF7894C1
:1008900084B5826084BD84B5816084BD85B5826085
:1008A00085BD85B5816085BD80916E008160809336
:1008B0006E0010928100809181008260809381009F
:1008C00080918100816080938100809180008160AF
:1008D000809380008091B10084608093B10080910A
:1008E000B00081608093B00080917A008460809332
:1008F0007A0080917A00826080937A0080917A00F9
:10090000816080937A0080917A00806880937A0079
:100910001092C100E0913B01F0913C0182E08083A4
:10092000E0913701F09138011082E0913901F091A6
:100930003A018FEC808310924301E0913F01F091E6
:10094000400186E08083E0913D01F0913E0180818D
:1009500080618083E0913D01F0913E01808188605B
:100960008083E0913D01F0913E0180818068808329
:10097000E0913D01F0913E0180818F7D808361E0B7
:1009800085E00E94D30061E086E00E94D30061E030
:1009900083E00E94D30060E08EE00E94D30060E01C
:1009A00080E10E94D30060E08FE00E94D30060E00D
:1009B00081E10E94D300CC24CA9483E0D82EE12C9C
:1009C000F12C8EE00E9461012FEF30E0DC010E94EB
:1009D000FA05A70196010E94AA05CA01B9010E9461
:1009E00023074B015C0180E10E9461012FEF30E0A1
:1009F000DC010E94FA05A70196010E94AA05CA011E
:100A0000B9010E94230769837A838B839C838FE0DB
:100A10000E9461012FEF30E0DC010E94FA05A7017E
:100A200096010E94AA05CA01B9010E9423076D839D
:100A30007E838F83988781E10E94610124E630E004
:100A4000DC010E94FA05A70196010E94AA05CA01CD
:100A5000B9010E9423072B013C01C501B4010E948A
:100A6000D10269817A818B819C810E94D1026D8142
:100A70007E818F8198850E94D102C301B2010E94BC
:100A8000D10220E030E048EC52E4C301B2010E9400
:100A900079062B013C01AC019B01C501B4010E9408
:100AA000D8070E94EB0685E00E940401A301920191
:100AB0006D817E818F8198850E94D8070E94EB0608
:100AC00086E00E940401A301920169817A818B81F1
:100AD0009C810E94D8070E94EB0683E00E940401DB
:100AE00080E090E0892B09F46CCF0E94DD0188231F
:100AF00009F467CF0E94000064CFEBE2F1E01382BB
:100B0000128288EE93E0A0E0B0E084839583A68310
:100B1000B78384E091E09183808385EC90E09587B2
:100B2000848784EC90E09787868780EC90E0918BB7
:100B3000808B81EC90E0938B828B82EC90E0958BA4
:100B4000848B86EC90E0978B868B118E128E138EA1
:100B5000148E0895052E97FB1EF400940E94C10583
:100B600057FD07D00E94C90507FC03D04EF40C9432
:100B7000C10550954095309521953F4F4F4F5F4FA0
:100B8000089590958095709561957F4F8F4F9F4FF9
:100B90000895A1E21A2EAA1BBB1BFD010DC0AA1FBE
:100BA000BB1FEE1FFF1FA217B307E407F50720F0D6
:100BB000A21BB30BE40BF50B661F771F881F991F51
:100BC0001A9469F760957095809590959B01AC019A
:100BD000BD01CF010895A29FB001B39FC001A39FA3
:100BE000700D811D1124911DB29F700D811D112466
:100BF000911D08950E94EB05B7FF0895821B930B8A
:100C00000895EE0FFF1F0590F491E02D09945058C0
:100C1000BB27AA270E941F060C9499070E948B07E6
:100C200038F00E94920720F039F49F3F19F426F41F
:100C30000C9488070EF4E095E7FB0C948207E92FEB
:100C40000E94AA0758F3BA1762077307840795072B
:100C500020F079F4A6F50C94CC070EF4E0950B2E59
:100C6000BA2FA02D0B01B90190010C01CA01A001FE
:100C70001124FF27591B99F0593F50F4503E68F159
:100C80001A16F040A22F232F342F4427585FF3CF9A
:100C9000469537952795A795F0405395C9F77EF46B
:100CA0001F16BA0B620B730B840BBAF09150A1F0B4
:100CB000FF0FBB1F661F771F881FC2F70EC0BA0F3A
:100CC000621F731F841F48F4879577956795B795C2
:100CD000F7959E3F08F0B0CF9395880F08F09927BD
:100CE000EE0F9795879508950E945E0708F481E0BE
:100CF00008950E948D060C9499070E94920758F05F
:100D00000E948B0740F029F45F3F29F00C94820782
:100D100051110C94CD070C9488070E94AA0768F320
:100D20009923B1F3552391F3951B550BBB27AA27A4
:100D300062177307840738F09F5F5F4F220F331FDE
:100D4000441FAA1FA9F335D00E2E3AF0E0E832D0A6
:100D500091505040E695001CCAF72BD0FE2F29D0A9
:100D6000660F771F881FBB1F261737074807AB077B
:100D7000B0E809F0BB0B802DBF01FF2793585F4FF0
:100D80003AF09E3F510578F00C9482070C94CD0701
:100D90005F3FE4F3983ED4F3869577956795B795D2
:100DA000F7959F5FC9F7880F911D9695879597F9DD
:100DB0000895E1E0660F771F881FBB1F6217730756
:100DC0008407BA0720F0621B730B840BBA0BEE1F6B
:100DD00088F7E09508950E94F2066894B1110C948A
:100DE000CD0708950E94B20788F09F5798F0B92F59
:100DF0009927B751B0F0E1F0660F771F881F991F50
:100E00001AF0BA95C9F714C0B13091F00E94CC071E
:100E1000B1E008950C94CC07672F782F8827B85F2E
:100E200039F0B93FCCF3869577956795B395D9F7A7
:100E30003EF490958095709561957F4F8F4F9F4FB1
:100E40000895E89409C097FB3EF4909580957095BD
:100E500061957F4F8F4F9F4F9923A9F0F92F96E906
:100E6000BB279395F695879577956795B795F1117B
:100E7000F8CFFAF4BB0F11F460FF1BC06F5F7F4F18
:100E80008F4F9F4F16C0882311F096E911C077232A
:100E900021F09EE8872F762F05C0662371F096E833
:100EA000862F70E060E02AF09A95660F771F881F02
:100EB000DAF7880F9695879597F90895990F0008A6
:100EC000550FAA0BE0E8FEEF16161706E807F9071C
:100ED000C0F012161306E407F50798F0621B730BB7
:100EE000840B950B39F40A2661F0232B242B252B38
:100EF00021F408950A2609F4A140A6958FEF811DDB
:100F0000811D089597F99F6780E870E060E008957B
:100F10009FEF80EC089500240A9416161706180611
:100F20000906089500240A941216130614060506ED
:100F30000895092E0394000C11F4882352F0BB0F7E
:100F400040F4BF2B11F460FF04C06F5F7F4F8F4FE1
:100F50009F4F089557FD9058440F551F59F05F3F1C
:100F600071F04795880F97FB991F61F09F3F79F0CB
:100F700087950895121613061406551FF2CF46954D
:100F8000F1DF08C0161617061806991FF1CF8695CF
:100F90007105610508940895E894BB2766277727B3
:100FA000CB0197F908950E945E0708F48FEF08952A
:100FB0000E94EB070C9499070E948B0738F00E945F
:100FC000920720F0952311F00C9482070C94880767
:100FD00011240C94CD070E94AA0770F3959FC1F3CA
:100FE000950F50E0551F629FF001729FBB27F00DD7
:100FF000B11D639FAA27F00DB11DAA1F649F66272C
:10100000B00DA11D661F829F2227B00DA11D621F7A
:10101000739FB00DA11D621F839FA00D611D221F34
:10102000749F3327A00D611D231F849F600D211D18
:10103000822F762F6A2F11249F5750409AF0F1F09B
:1010400088234AF0EE0FFF1FBB1F661F771F881F04
:1010500091505040A9F79E3F510580F00C948207B3
:101060000C94CD075F3FE4F3983ED4F386957795D3
:101070006795B795F795E7959F5FC1F7FE2B880FAA
:10108000911D9695879597F908950E945E07880BA4
:08109000990B0895F894FFCFBD
:101098000000000013027301A0016002D101AF013A
:1010A800C3016E616E00696E66006F7666000D0A98
:0210B800000036
:00000001FF
